{
  "_format": "hh-sol-artifact-1",
  "contractName": "EventMaker",
  "sourceName": "contracts/EventMaker.sol",
  "abi": [
    {
      "anonymous": false,
      "inputs": [
        {
          "indexed": false,
          "internalType": "string",
          "name": "eventID",
          "type": "string"
        },
        {
          "indexed": false,
          "internalType": "address",
          "name": "attendeeAddress",
          "type": "address"
        }
      ],
      "name": "ConfirmedAttendee",
      "type": "event"
    },
    {
      "anonymous": false,
      "inputs": [
        {
          "indexed": false,
          "internalType": "string",
          "name": "eventID",
          "type": "string"
        }
      ],
      "name": "DepositsPaidOut",
      "type": "event"
    },
    {
      "anonymous": false,
      "inputs": [
        {
          "indexed": false,
          "internalType": "string",
          "name": "eventID",
          "type": "string"
        },
        {
          "indexed": false,
          "internalType": "address",
          "name": "creatorAddress",
          "type": "address"
        },
        {
          "indexed": false,
          "internalType": "uint256",
          "name": "eventTimestamp",
          "type": "uint256"
        },
        {
          "indexed": false,
          "internalType": "uint256",
          "name": "maxCapacity",
          "type": "uint256"
        },
        {
          "indexed": false,
          "internalType": "uint256",
          "name": "deposit",
          "type": "uint256"
        },
        {
          "indexed": false,
          "internalType": "string",
          "name": "eventDataCID",
          "type": "string"
        }
      ],
      "name": "NewEventCreated",
      "type": "event"
    },
    {
      "anonymous": false,
      "inputs": [
        {
          "indexed": false,
          "internalType": "string",
          "name": "eventID",
          "type": "string"
        },
        {
          "indexed": false,
          "internalType": "address",
          "name": "attendeeAddress",
          "type": "address"
        }
      ],
      "name": "NewRSVP",
      "type": "event"
    },
    {
      "anonymous": false,
      "inputs": [
        {
          "indexed": false,
          "internalType": "string",
          "name": "Message",
          "type": "string"
        }
      ],
      "name": "Payout",
      "type": "event"
    },
    {
      "inputs": [
        {
          "internalType": "string",
          "name": "eventId",
          "type": "string"
        }
      ],
      "name": "confirmAllAttendees",
      "outputs": [],
      "stateMutability": "nonpayable",
      "type": "function"
    },
    {
      "inputs": [
        {
          "internalType": "string",
          "name": "eventId",
          "type": "string"
        },
        {
          "internalType": "address",
          "name": "attendee",
          "type": "address"
        }
      ],
      "name": "confirmAttendee",
      "outputs": [],
      "stateMutability": "nonpayable",
      "type": "function"
    },
    {
      "inputs": [
        {
          "internalType": "uint256",
          "name": "eventTimestamp",
          "type": "uint256"
        },
        {
          "internalType": "uint256",
          "name": "deposit",
          "type": "uint256"
        },
        {
          "internalType": "uint256",
          "name": "maxCapacity",
          "type": "uint256"
        },
        {
          "internalType": "string",
          "name": "eventDataCID",
          "type": "string"
        },
        {
          "internalType": "string",
          "name": "eventId",
          "type": "string"
        }
      ],
      "name": "createNewEvent",
      "outputs": [],
      "stateMutability": "nonpayable",
      "type": "function"
    },
    {
      "inputs": [
        {
          "internalType": "string",
          "name": "eventId",
          "type": "string"
        }
      ],
      "name": "createNewRSVP",
      "outputs": [],
      "stateMutability": "payable",
      "type": "function"
    },
    {
      "inputs": [],
      "name": "getBlockTime",
      "outputs": [
        {
          "internalType": "uint256",
          "name": "",
          "type": "uint256"
        }
      ],
      "stateMutability": "view",
      "type": "function"
    },
    {
      "inputs": [
        {
          "internalType": "string",
          "name": "eventId",
          "type": "string"
        }
      ],
      "name": "getConfirmedRSVPs",
      "outputs": [
        {
          "internalType": "address payable[]",
          "name": "",
          "type": "address[]"
        }
      ],
      "stateMutability": "view",
      "type": "function"
    },
    {
      "inputs": [
        {
          "internalType": "string",
          "name": "eventID",
          "type": "string"
        }
      ],
      "name": "getEvent",
      "outputs": [
        {
          "internalType": "string",
          "name": "eventDataCID",
          "type": "string"
        },
        {
          "internalType": "address",
          "name": "eventOwner",
          "type": "address"
        },
        {
          "internalType": "uint256",
          "name": "eventTimestamp",
          "type": "uint256"
        },
        {
          "internalType": "uint256",
          "name": "maxCapacity",
          "type": "uint256"
        },
        {
          "internalType": "uint256",
          "name": "deposit",
          "type": "uint256"
        },
        {
          "internalType": "string",
          "name": "eventId",
          "type": "string"
        }
      ],
      "stateMutability": "view",
      "type": "function"
    },
    {
      "inputs": [
        {
          "internalType": "uint256",
          "name": "i",
          "type": "uint256"
        }
      ],
      "name": "getEventId",
      "outputs": [
        {
          "internalType": "string",
          "name": "",
          "type": "string"
        }
      ],
      "stateMutability": "view",
      "type": "function"
    },
    {
      "inputs": [],
      "name": "getEventLength",
      "outputs": [
        {
          "internalType": "uint256",
          "name": "",
          "type": "uint256"
        }
      ],
      "stateMutability": "view",
      "type": "function"
    },
    {
      "inputs": [
        {
          "internalType": "string",
          "name": "",
          "type": "string"
        }
      ],
      "name": "idToEvent",
      "outputs": [
        {
          "internalType": "string",
          "name": "eventId",
          "type": "string"
        },
        {
          "internalType": "string",
          "name": "eventDataCID",
          "type": "string"
        },
        {
          "internalType": "address",
          "name": "eventOwner",
          "type": "address"
        },
        {
          "internalType": "uint256",
          "name": "eventTimestamp",
          "type": "uint256"
        },
        {
          "internalType": "uint256",
          "name": "deposit",
          "type": "uint256"
        },
        {
          "internalType": "uint256",
          "name": "maxCapacity",
          "type": "uint256"
        },
        {
          "internalType": "bool",
          "name": "paidOut",
          "type": "bool"
        }
      ],
      "stateMutability": "view",
      "type": "function"
    },
    {
      "inputs": [
        {
          "internalType": "string",
          "name": "eventId",
          "type": "string"
        }
      ],
      "name": "payOut",
      "outputs": [],
      "stateMutability": "nonpayable",
      "type": "function"
    }
  ],
  "bytecode": "0x608060405234801561001057600080fd5b5061287a806100206000396000f3fe60806040526004361061009c5760003560e01c8063b07e369711610064578063b07e369714610172578063c3be559b1461019b578063e1902063146101d8578063e495106b1461021a578063ebf2325714610236578063ff910c9b146102795761009c565b8063133280b0146100a15780635c98dfa1146100ca5780637130026e146100f557806387ceff091461011e578063aad4ba3914610149575b600080fd5b3480156100ad57600080fd5b506100c860048036038101906100c39190611ba6565b6102b6565b005b3480156100d657600080fd5b506100df61057b565b6040516100ec91906122d7565b60405180910390f35b34801561010157600080fd5b5061011c60048036038101906101179190611be7565b610587565b005b34801561012a57600080fd5b506101336109a5565b60405161014091906122d7565b60405180910390f35b34801561015557600080fd5b50610170600480360381019061016b9190611b61565b6109ad565b005b34801561017e57600080fd5b5061019960048036038101906101949190611c64565b610e6d565b005b3480156101a757600080fd5b506101c260048036038101906101bd9190611c3b565b611123565b6040516101cf91906120c9565b60405180910390f35b3480156101e457600080fd5b506101ff60048036038101906101fa9190611b61565b6111f9565b604051610211969594939291906120eb565b60405180910390f35b610234600480360381019061022f9190611b61565b611427565b005b34801561024257600080fd5b5061025d60048036038101906102589190611ba6565b611685565b604051610270979695949392919061215a565b60405180910390f35b34801561028557600080fd5b506102a0600480360381019061029b9190611b61565b61181a565b6040516102ad9190612002565b60405180910390f35b60006001826040516102c89190611fd6565b908152602001604051809103902090506000816007018054905082600601805490506102f49190612494565b90506000826004015482610308919061243a565b9050600083600701805490508261031f9190612409565b905060005b84600701805490508160ff16101561053c5784600801856007018260ff1681548110610379577f4e487b7100000000000000000000000000000000000000000000000000000000600052603260045260246000fd5b9060005260206000200160009054906101000a900473ffffffffffffffffffffffffffffffffffffffff169080600181540180825580915050600190039060005260206000200160009091909190916101000a81548173ffffffffffffffffffffffffffffffffffffffff021916908373ffffffffffffffffffffffffffffffffffffffff1602179055506000856007018260ff1681548110610445577f4e487b7100000000000000000000000000000000000000000000000000000000600052603260045260246000fd5b9060005260206000200160009054906101000a900473ffffffffffffffffffffffffffffffffffffffff1673ffffffffffffffffffffffffffffffffffffffff1686600401548461049691906123b3565b6040516104a290611fed565b60006040518083038185875af1925050503d80600081146104df576040519150601f19603f3d011682016040523d82523d6000602084013e6104e4565b606091505b5050905080610528576040517f08c379a000000000000000000000000000000000000000000000000000000000815260040161051f90612217565b60405180910390fd5b508080610534906125d4565b915050610324565b507f951481b5ab03382781591c75ab7640501967f2896d66ab36a6576a1d2c9de5948560405161056c91906120c9565b60405180910390a15050505050565b60008080549050905090565b60006001836040516105999190611fd6565b908152602001604051809103902090508060020160009054906101000a900473ffffffffffffffffffffffffffffffffffffffff1673ffffffffffffffffffffffffffffffffffffffff163373ffffffffffffffffffffffffffffffffffffffff161461063b576040517f08c379a0000000000000000000000000000000000000000000000000000000008152600401610632906122b7565b60405180910390fd5b600080600090505b82600601805490508160ff161015610772578373ffffffffffffffffffffffffffffffffffffffff16836006018260ff16815481106106ab577f4e487b7100000000000000000000000000000000000000000000000000000000600052603260045260246000fd5b9060005260206000200160009054906101000a900473ffffffffffffffffffffffffffffffffffffffff1673ffffffffffffffffffffffffffffffffffffffff16141561075f57826006018160ff1681548110610731577f4e487b7100000000000000000000000000000000000000000000000000000000600052603260045260246000fd5b9060005260206000200160009054906101000a900473ffffffffffffffffffffffffffffffffffffffff1691505b808061076a906125d4565b915050610643565b508273ffffffffffffffffffffffffffffffffffffffff168173ffffffffffffffffffffffffffffffffffffffff16146107e1576040517f08c379a00000000000000000000000000000000000000000000000000000000081526004016107d890612297565b60405180910390fd5b60005b82600701805490508160ff1610156108e1578373ffffffffffffffffffffffffffffffffffffffff16836007018260ff168154811061084c577f4e487b7100000000000000000000000000000000000000000000000000000000600052603260045260246000fd5b9060005260206000200160009054906101000a900473ffffffffffffffffffffffffffffffffffffffff1673ffffffffffffffffffffffffffffffffffffffff1614156108ce576040517f08c379a00000000000000000000000000000000000000000000000000000000081526004016108c5906121d7565b60405180910390fd5b80806108d9906125d4565b9150506107e4565b50600015158260090160009054906101000a900460ff1615151461093a576040517f08c379a0000000000000000000000000000000000000000000000000000000008152600401610931906121f7565b60405180910390fd5b81600701839080600181540180825580915050600190039060005260206000200160009091909190916101000a81548173ffffffffffffffffffffffffffffffffffffffff021916908373ffffffffffffffffffffffffffffffffffffffff16021790555050505050565b600042905090565b6000600183836040516109c1929190611fbd565b9081526020016040518091039020604051806101400160405290816000820180546109eb90612571565b80601f0160208091040260200160405190810160405280929190818152602001828054610a1790612571565b8015610a645780601f10610a3957610100808354040283529160200191610a64565b820191906000526020600020905b815481529060010190602001808311610a4757829003601f168201915b50505050508152602001600182018054610a7d90612571565b80601f0160208091040260200160405190810160405280929190818152602001828054610aa990612571565b8015610af65780601f10610acb57610100808354040283529160200191610af6565b820191906000526020600020905b815481529060010190602001808311610ad957829003601f168201915b505050505081526020016002820160009054906101000a900473ffffffffffffffffffffffffffffffffffffffff1673ffffffffffffffffffffffffffffffffffffffff1673ffffffffffffffffffffffffffffffffffffffff16815260200160038201548152602001600482015481526020016005820154815260200160068201805480602002602001604051908101604052809291908181526020018280548015610bf857602002820191906000526020600020905b8160009054906101000a900473ffffffffffffffffffffffffffffffffffffffff1673ffffffffffffffffffffffffffffffffffffffff1681526020019060010190808311610bae575b5050505050815260200160078201805480602002602001604051908101604052809291908181526020018280548015610c8657602002820191906000526020600020905b8160009054906101000a900473ffffffffffffffffffffffffffffffffffffffff1673ffffffffffffffffffffffffffffffffffffffff1681526020019060010190808311610c3c575b5050505050815260200160088201805480602002602001604051908101604052809291908181526020018280548015610d1457602002820191906000526020600020905b8160009054906101000a900473ffffffffffffffffffffffffffffffffffffffff1673ffffffffffffffffffffffffffffffffffffffff1681526020019060010190808311610cca575b505050505081526020016009820160009054906101000a900460ff1615151515815250509050806040015173ffffffffffffffffffffffffffffffffffffffff163373ffffffffffffffffffffffffffffffffffffffff1614610dac576040517f08c379a0000000000000000000000000000000000000000000000000000000008152600401610da3906122b7565b60405180910390fd5b60005b8160c00151518160ff161015610e6757610e5484848080601f016020809104026020016040519081016040528093929190818152602001838380828437600081840152601f19601f820116905080830192505050505050508360c001518360ff1681518110610e47577f4e487b7100000000000000000000000000000000000000000000000000000000600052603260045260246000fd5b6020026020010151610587565b8080610e5f906125d4565b915050610daf565b50505050565b606080606060405180610140016040528086868080601f016020809104026020016040519081016040528093929190818152602001838380828437600081840152601f19601f82011690508083019250505050505050815260200188888080601f016020809104026020016040519081016040528093929190818152602001838380828437600081840152601f19601f8201169050808301925050505050505081526020013373ffffffffffffffffffffffffffffffffffffffff1681526020018b81526020018a81526020018981526020018481526020018381526020018281526020016000151581525060018686604051610f6b929190611fbd565b90815260200160405180910390206000820151816000019080519060200190610f959291906118d2565b506020820151816001019080519060200190610fb29291906118d2565b5060408201518160020160006101000a81548173ffffffffffffffffffffffffffffffffffffffff021916908373ffffffffffffffffffffffffffffffffffffffff160217905550606082015181600301556080820151816004015560a0820151816005015560c0820151816006019080519060200190611034929190611958565b5060e0820151816007019080519060200190611051929190611958565b5061010082015181600801908051906020019061106f929190611958565b506101208201518160090160006101000a81548160ff0219169083151502179055509050507f9f204c215b1f4f43a33a1b7272e476938a219d677894d59937dfb6e1554a2ab28585338d8c8e8d8d6040516110d1989796959493929190612056565b60405180910390a160008585909180600181540180825580915050600190039060005260206000200160009091929091929091929091925091906111169291906119e2565b5050505050505050505050565b60606000828154811061115f577f4e487b7100000000000000000000000000000000000000000000000000000000600052603260045260246000fd5b90600052602060002001805461117490612571565b80601f01602080910402602001604051908101604052809291908181526020018280546111a090612571565b80156111ed5780601f106111c2576101008083540402835291602001916111ed565b820191906000526020600020905b8154815290600101906020018083116111d057829003601f168201915b50505050509050919050565b6060600080600080606060018888604051611215929190611fbd565b908152602001604051809103902060010160018989604051611238929190611fbd565b908152602001604051809103902060020160009054906101000a900473ffffffffffffffffffffffffffffffffffffffff1660018a8a60405161127c929190611fbd565b90815260200160405180910390206003015460018b8b6040516112a0929190611fbd565b90815260200160405180910390206005015460018c8c6040516112c4929190611fbd565b90815260200160405180910390206004015460018d8d6040516112e8929190611fbd565b908152602001604051809103902060000185805461130590612571565b80601f016020809104026020016040519081016040528092919081815260200182805461133190612571565b801561137e5780601f106113535761010080835404028352916020019161137e565b820191906000526020600020905b81548152906001019060200180831161136157829003601f168201915b5050505050955080805461139190612571565b80601f01602080910402602001604051908101604052809291908181526020018280546113bd90612571565b801561140a5780601f106113df5761010080835404028352916020019161140a565b820191906000526020600020905b8154815290600101906020018083116113ed57829003601f168201915b505050505090509550955095509550955095509295509295509295565b60006001838360405161143b929190611fbd565b908152602001604051809103902090508060030154421115611492576040517f08c379a000000000000000000000000000000000000000000000000000000000815260040161148990612237565b60405180910390fd5b80600501548160060180549050106114df576040517f08c379a00000000000000000000000000000000000000000000000000000000081526004016114d690612277565b60405180910390fd5b60005b81600601805490508160ff1610156115df573373ffffffffffffffffffffffffffffffffffffffff16826006018260ff168154811061154a577f4e487b7100000000000000000000000000000000000000000000000000000000600052603260045260246000fd5b9060005260206000200160009054906101000a900473ffffffffffffffffffffffffffffffffffffffff1673ffffffffffffffffffffffffffffffffffffffff1614156115cc576040517f08c379a00000000000000000000000000000000000000000000000000000000081526004016115c390612257565b60405180910390fd5b80806115d7906125d4565b9150506114e2565b5080600601339080600181540180825580915050600190039060005260206000200160009091909190916101000a81548173ffffffffffffffffffffffffffffffffffffffff021916908373ffffffffffffffffffffffffffffffffffffffff1602179055507fabcce16e56e262edb0b0f42f67799f9af66be1921b5e65285ea5c687d9b1e61883833360405161167893929190612024565b60405180910390a1505050565b6001818051602081018201805184825260208301602085012081835280955050505050506000915090508060000180546116be90612571565b80601f01602080910402602001604051908101604052809291908181526020018280546116ea90612571565b80156117375780601f1061170c57610100808354040283529160200191611737565b820191906000526020600020905b81548152906001019060200180831161171a57829003601f168201915b50505050509080600101805461174c90612571565b80601f016020809104026020016040519081016040528092919081815260200182805461177890612571565b80156117c55780601f1061179a576101008083540402835291602001916117c5565b820191906000526020600020905b8154815290600101906020018083116117a857829003601f168201915b5050505050908060020160009054906101000a900473ffffffffffffffffffffffffffffffffffffffff16908060030154908060040154908060050154908060090160009054906101000a900460ff16905087565b6060600060018484604051611830929190611fbd565b90815260200160405180910390209050806006018054806020026020016040519081016040528092919081815260200182805480156118c457602002820191906000526020600020905b8160009054906101000a900473ffffffffffffffffffffffffffffffffffffffff1673ffffffffffffffffffffffffffffffffffffffff168152602001906001019080831161187a575b505050505091505092915050565b8280546118de90612571565b90600052602060002090601f0160209004810192826119005760008555611947565b82601f1061191957805160ff1916838001178555611947565b82800160010185558215611947579182015b8281111561194657825182559160200191906001019061192b565b5b5090506119549190611a68565b5090565b8280548282559060005260206000209081019282156119d1579160200282015b828111156119d05782518260006101000a81548173ffffffffffffffffffffffffffffffffffffffff021916908373ffffffffffffffffffffffffffffffffffffffff16021790555091602001919060010190611978565b5b5090506119de9190611a68565b5090565b8280546119ee90612571565b90600052602060002090601f016020900481019282611a105760008555611a57565b82601f10611a2957803560ff1916838001178555611a57565b82800160010185558215611a57579182015b82811115611a56578235825591602001919060010190611a3b565b5b509050611a649190611a68565b5090565b5b80821115611a81576000816000905550600101611a69565b5090565b6000611a98611a9384612317565b6122f2565b905082815260208101848484011115611ab057600080fd5b611abb84828561252f565b509392505050565b600081359050611ad281612816565b92915050565b60008083601f840112611aea57600080fd5b8235905067ffffffffffffffff811115611b0357600080fd5b602083019150836001820283011115611b1b57600080fd5b9250929050565b600082601f830112611b3357600080fd5b8135611b43848260208601611a85565b91505092915050565b600081359050611b5b8161282d565b92915050565b60008060208385031215611b7457600080fd5b600083013567ffffffffffffffff811115611b8e57600080fd5b611b9a85828601611ad8565b92509250509250929050565b600060208284031215611bb857600080fd5b600082013567ffffffffffffffff811115611bd257600080fd5b611bde84828501611b22565b91505092915050565b60008060408385031215611bfa57600080fd5b600083013567ffffffffffffffff811115611c1457600080fd5b611c2085828601611b22565b9250506020611c3185828601611ac3565b9150509250929050565b600060208284031215611c4d57600080fd5b6000611c5b84828501611b4c565b91505092915050565b600080600080600080600060a0888a031215611c7f57600080fd5b6000611c8d8a828b01611b4c565b9750506020611c9e8a828b01611b4c565b9650506040611caf8a828b01611b4c565b955050606088013567ffffffffffffffff811115611ccc57600080fd5b611cd88a828b01611ad8565b9450945050608088013567ffffffffffffffff811115611cf757600080fd5b611d038a828b01611ad8565b925092505092959891949750929550565b6000611d208383611d2c565b60208301905092915050565b611d35816124da565b82525050565b611d44816124c8565b82525050565b6000611d5582612358565b611d5f818561237b565b9350611d6a83612348565b8060005b83811015611d9b578151611d828882611d14565b9750611d8d8361236e565b925050600181019050611d6e565b5085935050505092915050565b611db1816124ec565b82525050565b6000611dc38385612397565b9350611dd083858461252f565b611dd9836126ba565b840190509392505050565b6000611df083856123a8565b9350611dfd83858461252f565b82840190509392505050565b6000611e1482612363565b611e1e8185612397565b9350611e2e81856020860161253e565b611e37816126ba565b840191505092915050565b6000611e4d82612363565b611e5781856123a8565b9350611e6781856020860161253e565b80840191505092915050565b6000611e80600f83612397565b9150611e8b826126cb565b602082019050919050565b6000611ea3601083612397565b9150611eae826126f4565b602082019050919050565b6000611ec6601483612397565b9150611ed18261271d565b602082019050919050565b6000611ee9601083612397565b9150611ef482612746565b602082019050919050565b6000611f0c601183612397565b9150611f178261276f565b602082019050919050565b6000611f2f601f83612397565b9150611f3a82612798565b602082019050919050565b6000611f52601283612397565b9150611f5d826127c1565b602082019050919050565b6000611f7560008361238c565b9150611f80826127ea565b600082019050919050565b6000611f98600e83612397565b9150611fa3826127ed565b602082019050919050565b611fb781612518565b82525050565b6000611fca828486611de4565b91508190509392505050565b6000611fe28284611e42565b915081905092915050565b6000611ff882611f68565b9150819050919050565b6000602082019050818103600083015261201c8184611d4a565b905092915050565b6000604082019050818103600083015261203f818587611db7565b905061204e6020830184611d3b565b949350505050565b600060c0820190508181036000830152612071818a8c611db7565b90506120806020830189611d3b565b61208d6040830188611fae565b61209a6060830187611fae565b6120a76080830186611fae565b81810360a08301526120ba818486611db7565b90509998505050505050505050565b600060208201905081810360008301526120e38184611e09565b905092915050565b600060c08201905081810360008301526121058189611e09565b90506121146020830188611d3b565b6121216040830187611fae565b61212e6060830186611fae565b61213b6080830185611fae565b81810360a083015261214d8184611e09565b9050979650505050505050565b600060e0820190508181036000830152612174818a611e09565b905081810360208301526121888189611e09565b90506121976040830188611d3b565b6121a46060830187611fae565b6121b16080830186611fae565b6121be60a0830185611fae565b6121cb60c0830184611da8565b98975050505050505050565b600060208201905081810360008301526121f081611e73565b9050919050565b6000602082019050818103600083015261221081611e96565b9050919050565b6000602082019050818103600083015261223081611eb9565b9050919050565b6000602082019050818103600083015261225081611edc565b9050919050565b6000602082019050818103600083015261227081611eff565b9050919050565b6000602082019050818103600083015261229081611f22565b9050919050565b600060208201905081810360008301526122b081611f45565b9050919050565b600060208201905081810360008301526122d081611f8b565b9050919050565b60006020820190506122ec6000830184611fae565b92915050565b60006122fc61230d565b905061230882826125a3565b919050565b6000604051905090565b600067ffffffffffffffff8211156123325761233161268b565b5b61233b826126ba565b9050602081019050919050565b6000819050602082019050919050565b600081519050919050565b600081519050919050565b6000602082019050919050565b600082825260208201905092915050565b600081905092915050565b600082825260208201905092915050565b600081905092915050565b60006123be82612518565b91506123c983612518565b9250827fffffffffffffffffffffffffffffffffffffffffffffffffffffffffffffffff038211156123fe576123fd6125fe565b5b828201905092915050565b600061241482612518565b915061241f83612518565b92508261242f5761242e61262d565b5b828204905092915050565b600061244582612518565b915061245083612518565b9250817fffffffffffffffffffffffffffffffffffffffffffffffffffffffffffffffff0483118215151615612489576124886125fe565b5b828202905092915050565b600061249f82612518565b91506124aa83612518565b9250828210156124bd576124bc6125fe565b5b828203905092915050565b60006124d3826124f8565b9050919050565b60006124e5826124f8565b9050919050565b60008115159050919050565b600073ffffffffffffffffffffffffffffffffffffffff82169050919050565b6000819050919050565b600060ff82169050919050565b82818337600083830152505050565b60005b8381101561255c578082015181840152602081019050612541565b8381111561256b576000848401525b50505050565b6000600282049050600182168061258957607f821691505b6020821081141561259d5761259c61265c565b5b50919050565b6125ac826126ba565b810181811067ffffffffffffffff821117156125cb576125ca61268b565b5b80604052505050565b60006125df82612522565b915060ff8214156125f3576125f26125fe565b5b600182019050919050565b7f4e487b7100000000000000000000000000000000000000000000000000000000600052601160045260246000fd5b7f4e487b7100000000000000000000000000000000000000000000000000000000600052601260045260246000fd5b7f4e487b7100000000000000000000000000000000000000000000000000000000600052602260045260246000fd5b7f4e487b7100000000000000000000000000000000000000000000000000000000600052604160045260246000fd5b6000601f19601f8301169050919050565b7f414c524541445920434c41494d45440000000000000000000000000000000000600082015250565b7f414c52454144592050414944204f555400000000000000000000000000000000600082015250565b7f4661696c656420746f2073656e64204574686572000000000000000000000000600082015250565b7f414c52454144592048415050454e454400000000000000000000000000000000600082015250565b7f414c524541445920434f4e4649524d4544000000000000000000000000000000600082015250565b7f54686973206576656e7420686173207265616368656420636170616369747900600082015250565b7f4e4f205253565020544f20434f4e4649524d0000000000000000000000000000600082015250565b50565b7f4e4f5420415554484f52495a4544000000000000000000000000000000000000600082015250565b61281f816124c8565b811461282a57600080fd5b50565b61283681612518565b811461284157600080fd5b5056fea2646970667358221220a8ec3013946e60cf395e5a8409707145a18651c9edbf0d8ab3366e1dbdc7038964736f6c63430008040033",
  "linkReferences": {},
  "deployedLinkReferences": {}
}